:1005660050617373776F72643A006374203A0020A7
:10057600203A20203A00204F4B0020202020202027
:100586002020202020202020202020004C6174657F
:1005960000212121426F6D62212121007361666570
:0905A60000455252002020200003
:0F075F00020F0000010C08010E00010D00C18007
:10000E0012073712074B7BFF7A0579667D017F0257
:10001E0012068D7BFF7A0579707D017F0112068DA8
:10002E007BFF7A0579757D067F0112068DE50DFB46
:10003E007A007516027D067F011206F0E50EFB7A38
:10004E00007516027D097F011206F0E50CFB7A00A1
:10005E007516027D0C7F011206F01202608F11E5FB
:10006E0011700302021BD3940A5041C3E50B940492
:10007E00E50A94005028AE0FAF107C007D0A1204E2
:10008E00168E0F8F10E51175F00A84E5F02510F528
:10009E0010E4350FF50F050BE50B7002050A75160A
:1000AE0004AB10AA0F7D0A7F021206F0E511640B55
:1000BE0060030201F2E51064477004E50F640B6003
:1000CE00030201CE7BFF7A05797C7D0E7F0212063C
:1000DE008DE4F50AF50B751604AB10AA0F7D0A7F99
:1000EE00021206F0E50DFB7A007516027D067F0101
:1000FE001206F0E50EFB7A007516027D097F0112DD
:10010E0006F0E50CFB7A007516027D0C7F011206D7
:10011E00F0E50CC394045048E50E7044E50D7040B4
:10012E007BFF7A0579807D017F0212068D7BFF7A37
:10013E000579927D017F0112068DE50CD394005056
:10014E001FE50E701BE50D70171207377BFF7A0542
:10015E0079977D047F0212068D7FC87E001206B04D
:10016E00E50CC3940450030200F2E50E9400500314
:10017E000200F2E50D940050030200F2750C04E447
:10018E00F50EF50DE50DFB7A007516027D067F0165
:10019E001206F0E50EFB7A007516027D097F01123C
:1001AE0006F0E50CFB7A007516027D0C7F01120637
:1001BE00F07BFF7A0579A27D017F0112068D80C446
:1001CE007BFF7A0579A77D0E7F0212068DE4F50F6F
:1001DE00F510F50AF50B751604AB10AA0F7D0A7F04
:1001EE00021206F0E511B40C24E4F50FF510F50A31
:1001FE00F50B751604AB10AA0F7D0A7F021206F0DE
:10020E007BFF7A0579AB7D0E7F0212068DE51045D8
:10021E000F600302003BE50C600302003BE50E603D
:10022E000302003BE50D600302003B1207377BFF24
:10023E007A0579807D017F0112068D7BFF7A057923
:10024E00977D047F0212068D7FC87E001206B002D3
:02025E00003B63
:03000B00020509E2
:04050900C0E0C0D0BE
:10050D00758ACD758CD40509E50970020508C3946B
:10051D00E8E5089403403D750800750900150CE5E4
:10052D000C9400501D750C3B150EE50EC394005038
:10053D0023750E3B150DE50DC394005017750D0079
:10054D008012E50C700EE50E700AE50D7006C20006
:04055D00C2A9C28CE1
:05056100D0D0D0E03213
:10072300EF4E600F7D027CC7DCFEDDFCEF1F70F037
:030733001E80ED38
:0107360022A0
:06076F00C2A58F80D2A795
:080775007F027EEFDEFEDFFCD7
:01077D002259
:0A077E00C2A612076FC2A70207759A
:1006D200CFCDCFCECCCE1204287C007D0A120428C6
:0406E200ED2430FFD4
:0A06E600D2A612076FC2A702077523
:10070D00AE07BE0104ED148006BE0209ED243F4480
:06071D0080FF12077E229E
:100737007F3812077E7F0C12077E7F0612077E7FA7
:040747000102077E26
:0A078800AC0312070DAF040206E6F1
:06068D008B128A13891490
:1006930012070DE4FDAB12AA13A9148D8275830012
:0C06A3001203E9FF60061206E60D80E974
:0106AF002228
:0C065A007F0AEA24FFFDE434FFFC7E0070
:080666008E178F188C198D1AF4
:10066E007F017E00E4FBEBC3951AE5196480F874F4
:0E067E008098500AAC17AD181204160B80E8D5
:01068C00224B
:0406F0008A148B15C8
:1006F40012070DAA16EAD39400400D12065AAC1440
:08070400AD151206D21A80EDBA
:01070C0022CA
:1005AF0012070DC3EA64809480400B7F2B1206E67E
:1005BF008A268B27800E7F2D1206E6C3E49BF52734
:1005CF00E49AF526AA25EAD39400400D12065AACF8
:0905DF0026AD271206D21A80EDA8
:0105E80022F0
:0405E9008A1D8B1EBE
:1005ED0012070DAA1FEAD3940040297F1012065C52
:1005FD00AC1DAD1ECFCDCFCECCCE120428EF540FF7
:10060D00FEC3940AEE5004243080022437FF1206F4
:04061D00E61A80D188
:0106210022B6
:040622008A2A8B2B6A
:1006260012070DAA2CEAD394004028EA24FFFDE421
:1006360034FFFC7F027E00120666AC2AAD2BCFCDBE
:10064600CFCECCCE120428EF54012430FF1206E69A
:030656001A80D235
:01065900227E
:10026000E4F5127590FFC2932097137F14FE1207D6
:10027000233097FD7F147E0012072375120120960C
:10028000147F147E001207233096FD7F147E001227
:1002900007237512052095147F147E001207233062
:1002A00095FD7F147E001207237512092094147F98
:1002B000147E001207233094FD7F147E0012072362
:1002C00075120D7590FFC2922097147F147E001254
:1002D00007233097FD7F147E00120723751202203A
:1002E00096147F147E001207233096FD7F147E0043
:1002F0001207237512062095147F147E001207231F
:100300003095FD7F147E0012072375120A20941485
:100310007F147E001207233094FD7F147E001207A5
:100320002375120E7590FFC2912097147F147E00E2
:100330001207233097FD7F147E00120723751203E6
:100340002096147F147E001207233096FD7F147EC2
:10035000001207237512072095147F147E001207E0
:10036000233095FD7F147E0012072375120B209415
:10037000147F147E001207233094FD7F147E001238
:10038000072375120F7590FFC2902097147F147E7B
:10039000001207233097FD7F147E00120723751289
:1003A000042096147F147E001207233096FD7F14DC
:1003B0007E001207237512082095147F147E001208
:1003C00007233095FD7F147E0012072375120C2041
:1003D00094147F147E001207233094FD7F147E0056
:0803E000120723751210AF1281
:0103E80022F2
:10074B005389F0758ACD758CD4C28DD28CD2A9D237
:04075B00AFC2B9224E
:05000300007FE3DFFEB9
:0100080022D5
:0406B000AD07AC06E0
:1006B400E4FBFAED25E0FFEC33FEC3EB9FEA9E502A
:0D06C4000CB2A51200030BBB00010A80E67A
:0106D1002206
:0300000002047D7A
:0C047D00787FE4F6D8FD75812C0204C4E1
:1003E900BB010CE58229F582E5833AF583E02250C9
:1003F90006E92582F8E622BBFE06E92582F8E22213
:0D040900E58229F582E5833AF583E493222C
:10041600EF8DF0A4A8F0CF8CF0A428CE8DF0A42EFA
:02042600FE22B4
:10042800BC000BBE0029EF8DF084FFADF022E4CCB8
:10043800F875F008EF2FFFEE33FEEC33FCEE9DEC81
:10044800984005FCEE9DFE0FD5F0E9E4CEFD22EDC7
:10045800F8F5F0EE8420D21CFEADF075F008EF2F11
:10046800FFED33FD4007985006D5F0F222C398FD02
:050478000FD5F0EA229F
:1004890002000EE493A3F8E493A34003F68001F27B
:1004990008DFF48029E493A3F85407240CC8C33374
:1004A900C4540F4420C8834004F456800146F6DF43
:1004B900E4800B010204081020408090075FE47E6D
:1004C900019360BCA3FF543F30E509541FFEE49338
:1004D900A360010ECF54C025E060A840B8E493A3FF
:1004E900FAE493A3F8E493A3C8C582C8CAC583CA2A
:1004F900F0A3C8C582C8CAC583CADFE9DEE780BEE2
:01076E00008A
:00000001FF
