:10066F0070617373776F7264002020202020202028
:10067F0020007375636365737320006572726F7208
:0D068F0020202000426F6F6D2121212000EE
:08074900021A001E0218000054
:1001970012077312071C7BFF7A06796F7D017F01B7
:1001A70012069CAE1AAF1B7C007D0A120443AC06F4
:1001B700AD077F031205247F017E0012075EAE1A8A
:1001C700AF1B7C007D0A1204437F041205247F01C4
:1001D7007E0012075E12000E8F1CE51C6046D3944A
:1001E7000A5033C3E5179405E51694005028AE1D51
:1001F700AF1E7C007D0A1204318E1D8F1EE51C7513
:10020700F00A84E5F0251EF51EE4351DF51D0517DA
:10021700E51770020516750F05AB1EAA1D7D017F38
:10022700021206FFE51C640B60030202D1E51E649F
:10023700397004E51D6430704D7BFF7A0679787D4F
:10024700017F0112069C7BFF7A0679787D017F0288
:1002570012069C7FE87E0312075E7FE87E03120783
:100267005E7FE87E0312075E7FE87E0312075E7BF0
:10027700FF7A0679817D017F0112069CE4F516F568
:1002870017F518751901E51E64397004E51D64300A
:100297006038E4F51DF51EF516F5177BFF7A06792C
:1002A7008A7D017F0112069C7FE87E0312075E7B31
:1002B700FF7A06796F7D017F0112069C750F05ABEA
:1002C7001EAA1D7D017F021206FFE51C640C600358
:1002D7000201AAF51DF51EF516F517750F05AB1EDC
:0C02E700AA1D7D017F021206FF0201AA81
:03000B000202F3FB
:1002F300C0E0C0F0C083C082C0D075D000C000C0D1
:0D03030001C002C003C004C005C006C00751
:10031000758A18758CFC0515E51570020514C394D3
:10032000E8E514940350030203E975140075150001
:10033000E519640145187004F51AF51BE51945180F
:1003400060030203E9E51B151B7002151AC3E51BC8
:100350009414E51A940040077F647E001206BFC320
:10036000E51B940AE51A94004026E51B9414E51A4F
:100370009400501C7F507E001206BF7F017E001249
:10038000075E7F507E001206BF7F017E0012075E6F
:10039000D3E51B9400E51A94004034E51B940AE56C
:1003A0001A9400502A7F327E001206BF7F017E0021
:1003B00012075E7F327E001206BF7F017E001207A9
:1003C0005E7F327E001206BF7F017E0012075EE56F
:1003D0001B451A70147BFF7A0679937D017F011209
:0903E000069C7FA07E861206BF78
:1003E900D007D006D005D004D003D002D001D00068
:0B03F900D0D0D082D083D0F0D0E03212
:10075E00EF1FAC0670011E4C600A7D027CEFDCFEC2
:04076E00DDFC80EC42
:010772002264
:06078700C2A58F80D2A77D
:08078D007F027EEFDEFEDFFCBF
:010795002241
:0A079600C2A6120787C2A702078D52
:1006E100CFCDCFCECCCE1204437C007D0A12044381
:0406F100ED2430FFC5
:0A06F500D2A6120787C2A702078DE4
:10073300AE07BE0104ED148006BE0209ED243F445A
:0607430080FF1207962260
:100773007F381207967F0C1207967F061207967F23
:0407830001020796D2
:0A07A000AC03120733AF040206F5A4
:06069C008B0B8A0C890D96
:1006A200120733E4FDAB0BAA0CA90D8D82758300F2
:0C06B200120404FF60061206F50D80E93A
:0106BE002219
:0C063C007F0AEA24FFFDE434FFFC7E008E
:080648008E108F118C128D132E
:100650007F017E00E4FBEBC39513E5126480F87420
:0E0660008098500AAC10AD111204310B80E8E6
:01066E002269
:0406FF008A0D8B0EC7
:10070300120733AA0FEAD39400400D12063CAC0D36
:08071300AD0E1206E11A80EDA3
:01071B0022BB
:10059100120733C3EA64809480400B7F2B1206F567
:1005A1008A2E8B2F800E7F2D1206F5C3E49BF52F2B
:1005B100E49AF52EAA2DEAD39400400D12063CAC24
:0905C1002EAD2F1206E11A80EDA7
:0105CA00220E
:0405CB008A328B33B2
:1005CF00120733AA34EAD3940040297F1012063E53
:1005DF00AC32AD33CFCDCFCECCCE120443EF540FD0
:1005EF00FEC3940AEE5004243080022437FF120613
:0405FF00F51A80D198
:0106030022D4
:040604008A378B386E
:10060800120733AA39EAD394004028EA24FFFDE40C
:1006180034FFFC7F027E00120648AC37AD38CFCDE0
:10062800CFCECCCE120443EF54012430FF1206F58E
:030638001A80D253
:01063B00229C
:10071C005389F0438901758A18758CFCC28DD28C73
:07072C00D2A9D2AFC2B9222D
:0C0751000A1F3F065B4F666D7D077F6F3F
:10052400EF14B40800505490053975F003A4C58342
:1005340025F0C583730205510205550205590205CC
:100544005D020561020569020571020579D2A48084
:100554000ED2A48012D2A48016D2A4801AC2A4D22D
:10056400A3D2A28016C2A4D2A3C2A2800EC2A4C2E5
:10057400A3D2A28006C2A4C2A3C2A2741F2DF8E60D
:0D058400F5807F017E0012075EE4F5802205
:05000300007FF7DFFEA5
:0100080022D5
:0406BF00AD07AC06D1
:1006C300E4FBFAED25E0FFEC33FEC3EB9FEA9E501B
:0D06D3000CB2A51200030BBB00010A80E66B
:0106E00022F7
:10000E00E4F50B7590FFC2932097137F14FE120731
:10001E005E3097FD7F147E0012075E750B012096F1
:10002E00147F147E0012075E3096FD7F147E001240
:10003E00075E750B052095147F147E0012075E3047
:10004E0095FD7F147E0012075E750B092094147FB8
:10005E00147E0012075E3094FD7F147E0012075E40
:10006E00750B0D7590FFC2922097147F147E0012AF
:10007E00075E3097FD7F147E0012075E750B02201F
:10008E0096147F147E0012075E3096FD7F147E005C
:10009E0012075E750B062095147F147E0012075E04
:1000AE003095FD7F147E0012075E750B0A209414A6
:1000BE007F147E0012075E3094FD7F147E001207BF
:1000CE005E750B0E7590FFC2912097147F147E0003
:1000DE0012075E3097FD7F147E0012075E750B03CC
:1000EE002096147F147E0012075E3096FD7F147EDC
:1000FE000012075E750B072095147F147E00120701
:10010E005E3095FD7F147E0012075E750B0B2094FA
:10011E00147F147E0012075E3094FD7F147E001251
:10012E00075E750B0F7590FFC2902097147F147E9B
:10013E000012075E3097FD7F147E0012075E750B6E
:10014E00042096147F147E0012075E3096FD7F14F5
:10015E007E0012075E750B082095147F147E001228
:10016E00075E3095FD7F147E0012075E750B0C2026
:10017E0094147F147E0012075E3094FD7F147E006F
:08018E0012075E750B10AF0BA8
:010196002246
:030000000204985F
:0C049800787FE4F6D8FD7581390204DF9E
:10040400BB010CE58229F582E5833AF583E02250AD
:1004140006E92582F8E622BBFE06E92582F8E222F7
:0D042400E58229F582E5833AF583E4932211
:10043100EF8DF0A4A8F0CF8CF0A428CE8DF0A42EDF
:02044100FE2299
:10044300BC000BBE0029EF8DF084FFADF022E4CC9D
:10045300F875F008EF2FFFEE33FEEC33FCEE9DEC66
:10046300984005FCEE9DFE0FD5F0E9E4CEFD22EDAC
:10047300F8F5F0EE8420D21CFEADF075F008EF2FF6
:10048300FFED33FD4007985006D5F0F222C398FDE7
:050493000FD5F0EA2284
:1004A400020197E493A3F8E493A34003F68001F2D6
:1004B40008DFF48029E493A3F85407240CC8C33359
:1004C400C4540F4420C8834004F456800146F6DF28
:1004D400E4800B0102040810204080900749E47E68
:1004E400019360BCA3FF543F30E509541FFEE4931D
:1004F400A360010ECF54C025E060A840B8E493A3E4
:10050400FAE493A3F8E493A3C8C582C8CAC583CA0E
:10051400F0A3C8C582C8CAC583CADFE9DEE780BEC6
:01075D00009B
:00000001FF
